:020000040800F2
:10000000F007002045010008DF23000875170008ED
:10001000DB230008FD0E00080D360008000000007C
:10002000000000000000000000000000F5300008A3
:100030004512000800000000A52F00080932000842
:100040005F0100085F0100085F0100085F01000810
:100050005F0100085F0100085F0100085F01000800
:100060005F0100085F0100085F0100085F010008F0
:100070005F0100085F0100085F0100085F010008E0
:100080005F0100085F0100085F0100085F010008D0
:100090005F0100085F0100085F0100085F010008C0
:1000A0005F0100085F0100085F0100085F010008B0
:1000B0005F0100086D3200085F0100085F01000861
:1000C0005F0100085F0100085F0100085F01000890
:1000D0005F010008E1330008FD3300085F010008FC
:1000E0005F0100085F0100085F0100085F01000870
:1000F0005F0100085F0100085F0100085F01000860
:100100005F0100085F0100085F0100085F0100084F
:100110005F0100085F0100085F0100085F0100083F
:100120005F0100085F0100085F0100085F0100082F
:10013000DFF80CD000F0E0FC00480047C1440008A4
:10014000F00700200648804706480047FEE7FEE724
:10015000FEE7FEE7FEE7FEE7FEE7FEE7FEE7FEE777
:100160000D32000831010008A0F14101192900D821
:100170002030704740EA01039B0703D009E008C91B
:10018000121F08C0042AFAD203E011F8013B00F85C
:10019000013B521EF9D27047D2B201E000F8012BA8
:1001A000491EFBD270470022F6E710B513460A46F7
:1001B00004461946FFF7F0FF204610BD30B505464E
:1001C0002A460B4612F8010B13F8014B08B1A04266
:1001D000F8D01CB1002802D06D1CF1E7284630BDD4
:1001E000CAB2401E10F8011F8A4202D00029F9D17C
:1001F00000207047421C10F8011B0029FBD1801A17
:10020000704710B5044600E0401C0378002BFBD17A
:1002100000E0401C521E04D311F8013B0370002B78
:10022000F7D100210170204610BD30B505460020F1
:10023000034600E05B1C934205D2EC5CC85C201ACC
:1002400001D1002CF6D130BD70B5064603F006FB97
:10025000046805460A220021304600F051FB2C605C
:1002600070BDF0B480EA0102D40F4200B2EB410F3E
:1002700002D20246084611464A0042D0C30DDDB202
:10028000C1F3C752AD1A202D35DAC1F3160141F47E
:10029000000204B15242C5F1200602FA06F12A41D9
:1002A0001044B3EBD05F23D0C4B1012DA0EBC350F9
:1002B00009DCF0BC4FF0004202EAC352DBB200F5A9
:1002C000000000F05EBB400000F1807000EBC35006
:1002D000A0F1807040EAD170490009E0490841EA84
:1002E000C071A0EBC35000F50000400800EBC35004
:1002F000F0BC00F03DBB6142012202EB4101001B5A
:10030000F6E7F0BC704781F00041AAE780F00040BA
:10031000A7E780EA010210B502F00043400022D0B6
:100320004A001FD0010E01EB1261C0F35600C2F368
:10033000560240F4000042F40002A0FB0220000438
:100340007F39140400D0401C50EA124001D4400010
:10035000491EC2B20C0604EBD010401C4008802A93
:1003600002D003E0002010BD20F00100002900DAD7
:100370000020184310BD30B480EA010202F00045AD
:1003800030F0004221F0004013D090B1C30DD40DE5
:10039000C2F31601C0F31600E41A41F4000140F460
:1003A00000027D34914201D3641C00E04900002C1E
:1003B00002DA30BC002070474FF400000023914265
:1003C00001D3891A034340084FEA4101F7D151B1E3
:1003D000914202D14FF0004105E002D24FF00101FD
:1003E00001E06FF0010103EBC450284430BC00F081
:1003F000BFBA2DE9FE4F804681EA0300C00F0C46CC
:10040000009021F0004123F00045B8EB0200A94123
:1004100005D24046214690461C460B46024623F034
:100420000040104347D0270DC7F30A00C3F30A5119
:100430000290401A019040286BDAC3F3130040F495
:10044000801B0098924620B10023D2EB030A63EB95
:100450000B0B01985946C0F14002504600F01FFABC
:1004600006460D4650465946019A00F037FA10EB01
:1004700008006141002487EA115284EAE7731A43B5
:1004800040D0009A62B3019A012A4FEA075215DC64
:10049000001B61EB02014FF0004202EA0752CDE976
:1004A0000042001C41F5801132462B4600F0A6FAAE
:1004B00003B0BDE8F08F40462146F9E7001B61EB31
:1004C0000201001C41F5801300185B412018A2F5C1
:1004D000001747EB030140EAD570B6196D4111E0F2
:1004E0006D084FEA360645EAC0754FEA0752001B11
:1004F00061EB0201001C41F5801149084FEA300010
:100500000019514132462B4603B0BDE8F04F00F0D0
:1005100066BA0098012240000023D0EB020263EB90
:10052000E073009821464FEAE074B8EB000061EBFD
:100530000401E9E783F000435BE781F0004158E7FD
:100540002DE9FE4F81EA030404F0004421F000414C
:1005500000944FF0000B23F0004350EA01045ED0FA
:1005600052EA03045BD0C3F30A54C1F30A552C4486
:10057000A4F2F3340194A0FB0254C1F3130141F43B
:100580008011C3F3130343F4801301FB024400FB07
:10059000034E840A970A44EA815447EA8357A4FB2E
:1005A000076802958D0A05FB07854FEA932C04FB2B
:1005B0000C542705029D4FEA065847EA1637B5EB5B
:1005C00008056EEB070C870E920E47EA811742EA88
:1005D0008312A7FB0201B6EB0B0164EB00042B0DA9
:1005E00043EA0C335E1844EB1C50DA465146E7FBF5
:1005F0000201C5F313044FEA0B3343EA14534FEAE5
:100600000432019C43EA0603A4F10C040294009C0A
:10061000CDE900B400F0F2F903B0BDE8F08F00209E
:100620000146F9E72DE9F04D81EA030404F0004B9F
:1006300021F0004514464FF0000A23F0004150EA33
:10064000050220D054EA01021DD0C5F30A57024624
:10065000C5F31303C1F31300C1F30A5640F4801528
:1006600043F48013A7EB0608101BD64608F2FD38AA
:1006700073EB050002D308F1010801E092185B4119
:10068000B8F1000F03DA00200146BDE8F08D00202C
:100690004FF48011064684460EE0171B73EB0507E6
:1006A00005D3121B63EB050306434CEA010C490812
:1006B0004FEA300092185B4150EA0107EDD152EA4F
:1006C000030012D082EA040083EA0501084305D042
:1006D000101BAB4106D20122002306E000224FF09E
:1006E000004302E06FF0010253101AEB06004CEBDE
:1006F000085110EB0A0041EB0B01BDE8F04D00F092
:100700006EB996230022114600F03BB90EB5C10F19
:1007100080EAE0700844CA07002140F233438DE8C4
:100720000E000A460B4600F069F903B000BD70B533
:10073000C1F30A5201F000450024C1F3130140F255
:10074000FF3341F480119A4201DA002070BD40F27B
:1007500033439A42A2F2334203DC524200F0AEF835
:1007600000E090402C43F1D0404270BD00F00042C8
:1007700030F000400AD0C10D01F56071C0F31600E1
:1007800042EA0151C2084007114370470020014668
:100790007047000030B5041E71F1000404DB4FF017
:1007A0000044404264EB0101141E73F1000405DBB8
:1007B0001C464FF00043524263EB0403994208BFCA
:1007C000904230BD01F0004330B421F0004150EAC6
:1007D000010206D00A0DA2F56072C1F31301002ACE
:1007E00002DC30BC00207047440F44EAC104C10061
:1007F000E01830BC00EBC25000F0BAB8002801DBB2
:10080000C0F10040002901DBC1F10041884270477E
:1008100030B50B46014600202022012409E021FAD0
:1008200002F59D4205D303FA02F5491B04FA02F5CD
:100830002844151EA2F10102F1DC30BD2DE9F05F64
:100840000546002092469B4688460646814640243F
:100850001BE0284641464746224600F02FF8534603
:100860005A46C01A914110D311461846224600F04C
:1008700016F82D1A67EB01084F4622460120002189
:1008800000F00DF817EB00094E41201EA4F1010401
:10089000DFDC484631462A464346BDE8F09F202A21
:1008A00004DB203A00FA02F1002070479140C2F1C7
:1008B000200320FA03F3194390407047202A04DBF9
:1008C000203A21FA02F00021704721FA02F3D040C9
:1008D000C2F120029140084319467047202A06DBE6
:1008E000CB17203A41FA02F043EAE07306E041FAFE
:1008F00002F3D040C2F120029140084319467047EC
:100900002DE9F04791460F4680460446002614F82C
:10091000015B2DB100F002F90068405DC007F6D11F
:100920002B2D02D02D2D18D0641E4A463946204664
:1009300000F0F8F827B13968A14201D1C7F800806A
:1009400071054FF002040BD54042002803DD02F090
:1009500085FF0460A007BDE8F08746F48066E4E701
:100960000028F8DA02F07AFF04606FF00040F2E746
:100970000029A8BF7047401C490008BF20F00100B3
:10098000704710B4B0FA80FC00FA0CF050EA010491
:1009900004BF10BC704749B1CCF1200421FA04F423
:1009A00011FA0CF118BF012121430843A3EB0C01FC
:1009B000CB1D4FEA00614FEA102042BF002010BC5F
:1009C000704700EBC35010440029A4BF10BC70470F
:1009D000401C490008BF20F0010010BC704710B552
:1009E000141E73F1000408DA401C41F10001921852
:1009F0005B411A4301D120F0010010BD2DE9F04DFB
:100A000092469B4611B1B1FA81F202E0B0FA80F24F
:100A100020329046FFF743FF04460F4640EA0A00A3
:100A200041EA0B0153465A46084313D0114653EA94
:100A3000010019D0C8F140025046FFF73FFF0546BC
:100A40000E46504659464246FFF729FF084305D057
:100A5000012004E020463946BDE8F08D0020054322
:100A600046EAE0762C4337430A986305E40AA0EB94
:100A700008000022FD0A44EA47540A3002D500204B
:100A80000146E9E7010510196941DDE9084500194A
:100A90006941BDE8F04DA2E770B521F00043034382
:100AA0000CD0C1F30A550024D5EB040564EB040314
:100AB000D617AD1AB34102DB0020014670BD2018E5
:100AC00041EB025170BDC1F30A52C1F3130140F270
:100AD000FF3341F480119A4202DA00200146704748
:100AE00040F233439A42A2F2334202DC5242FFF711
:100AF000E5BEFFF7D4BE0000064C074D06E0E068F7
:100B000040F0010394E8070098471034AC42F6D354
:100B1000FFF712FB186200083862000800487047AF
:100B2000046200082DE9F05F824600780027154630
:100B30008B460AF10104B946302801D09DB113E07B
:100B400014F8010B0127782803D0582801D045B1AB
:100B50000AE00DB1102D07D10027102514F8010B64
:100B600002E0082500E00A250026B0460EE005FB5D
:100B7000080005FB06F1012701EB10461FFA80F87B
:100B8000B6F5803F00D3B94614F8010B294600F0B2
:100B900069F80028EBDABBF1000F05D00FB1641E35
:100BA00000E05446CBF80040B9F1000F06D002F047
:100BB00055FE02210160C81EBDE8F09F48EA0640CC
:100BC000FAE72DE9F04D00231A461B1A8A4103DB90
:100BD00000200146BDE8F08DC1F30A52C1F31301B4
:100BE00041F480154FF0000BD10702D100186D4180
:100BF000521E0027044640F2FF11384601EB620AFC
:100C00003E468046024600204FF48011FFF756FE14
:100C1000C2197141BB1846EB0100B4EB030C75EB34
:100C2000000C04D3E41A65EB000517460E462419A0
:100C300008F101006D4180463428E3DDF91946EBE7
:100C40000600091BA84103D24FF0FF32134601E012
:100C5000002213461BEB070046EB0A51BDE8F04D9E
:100C6000FFF7BDBE3A2800D2303820F02002412ADA
:100C700001D3A2F13700884201D34FF0FF30704713
:100C800008B50121084602F09BF901214FF40470D8
:100C900002F0B6F90120ADF8000000208DF8030045
:100CA0006946024800F080FC08BD000000100140C9
:100CB00010B5FFF7E5FF00F001F810BD00B591B0E9
:100CC000314800F0FBF93148069031480790002088
:100CD00008900120099000200B900A904FF480703A
:100CE0000C9080000D9020200E9000020F900020AC
:100CF000109006A9244800F087FA0121224800F04C
:100D0000D1F9002001908DF8080001208DF809002C
:100D10004FF4602003900020049001208DF814000F
:100D200001A91A484C3800F055F84FF4404002F041
:100D30003BF9052301220A2114484C3800F072F8CF
:100D4000012112484C3800F030F801210F484C388E
:100D500000F020F800BF0D484C3800F031F80028B2
:100D6000F9D10A484C3800F0C4F800BF07484C38A5
:100D700000F026F80028F9D1012104484C3800F091
:100D8000ADF811B000BD0000080002404C24014045
:100D90004C00002021B1826842F00102826003E031
:100DA000826822F001028260704721B1826842F4B9
:100DB0008072826003E0826822F4807282607047F1
:100DC000014600208A6802F008020AB1012000E012
:100DD0000020704730B502460020002350680F4CB9
:100DE00020400D790C6844EA052420435060906847
:100DF0000B4C2040D1E902542C434D7944EA450480
:100E000020439060D06A20F470000C7C641EE4B231
:100E1000234340EA0350D06230BD0000FFFEF0FFE4
:100E2000FDF7F1FFF0B504460D4600200021092D25
:100E300011DDE068A5F10A0606EB4607072606FA6B
:100E400007F18843A5F10A0606EB460603FA06F108
:100E50000843E0600CE0206905EB4507072606FA29
:100E600007F1884305EB450603FA06F108432061C4
:100E7000072A0FDA606B561E06EB86071F2606FA56
:100E800007F18843561E06EB860605FA06F108436D
:100E9000606322E00D2A0FDA206BD61F06EB86076F
:100EA0001F2606FA07F18843D61F06EB860605FAC9
:100EB00006F10843206310E0E06AA2F10D0606EB9C
:100EC00086071F2606FA07F18843A2F10D0606EBF6
:100ED000860605FA06F10843E062F0BD21B182689A
:100EE00042F4A002826003E0826822F4A0028260E1
:100EF0007047816841F004018160704700BFFEE7E0
:100F000010B5002400F024F804E0601CC4B20120F5
:100F100003F088FA0D48006808B1642CF5DB642CF6
:100F200001DB012010BD002404E0601CC4B20120DC
:100F300003F078FA0548006808B9642CF5DB642CE6
:100F400001DB0120EEE70020ECE700003C0121423C
:100F500008B50121052002F053F80121074800F0EF
:100F6000AFFB4FF40040ADF8000004208DF8030003
:100F70006946034800F018FB08BD0000000230007D
:100F80000008014008B54FF40040ADF80000102003
:100F90008DF8030003208DF802006946014800F037
:100FA00003FB08BD0008014010B500F065F8FFF72D
:100FB000A7FF10BD10B5002404E0601CC4B20120DE
:100FC00003F030FA0D48006808B1642CF5DB00240A
:100FD00004E0601CC4B2012003F024FA0748006852
:100FE00008B9642CF5DB282003F01CFA03480068DC
:100FF00008B1012010BD0020FCE700003C012142A7
:1010000070B50024002506E06006040EFFF7D2FF4D
:101010000443681CC5B2082DF6DB204670BD7CB5C4
:1010200005460E4600F028F8FFF76AFFF8B90024DD
:1010300005E0FFF7E5FF0DF80400601CC4B2052CC5
:10104000F7DB9DF800009DF8011008449DF80210A0
:1010500008449DF8031008449DF80410884208D104
:101060009DF8000030709DF80200287001E001201A
:101070007CBD0020FCE7000010B5FFF783FF0020D7
:1010800006490860142003F0A7F901200449C1F8BB
:10109000BC011E2003F0C6F910BD0000BC012142B6
:1010A0000000214221B1026842F00102026004E026
:1010B00002684FF6FE731A400260704701684FF6EF
:1010C000FE72114001600021016041608160C160D9
:1010D0004B49884208D14A490839496841F00F0113
:1010E000474A083A51608AE045491431884208D19C
:1010F00043490839496841F0F001414A083A5160D2
:101100007DE03F492831884208D13D490839496886
:1011100041F470613A4A083A516070E038493C3114
:10112000884208D136490839496841F47041344A47
:10113000083A516063E032495031884208D1304961
:101140000839496841F470212D4A083A516056E047
:101150002B496431884208D129490839496841F44A
:101160007001274A083A516049E0254978318842A0
:1011700008D123490839496841F07061204A083A8A
:1011800051603CE01F49884206D1011F096841F0C7
:101190000F01021F116032E01A491431884208D150
:1011A0001849091F096841F0F001164A121F116021
:1011B00025E014492831884208D11249091F0968DD
:1011C00041F470610F4A121F116018E00D493C3163
:1011D000884208D10B49091F096841F47041094A46
:1011E000121F11600BE007495031884207D10549B1
:1011F000091F096841F47021024A121F11607047EB
:10120000080002400804024010B50022026847F6B8
:10121000F0739A430C6A8B6823430C6923434C692F
:1012200023438C692343CC6923434C6A23438C6A50
:1012300023431A430260CB6843600B6883604B68AA
:10124000C36010BD7047000010B580210348FEF751
:10125000AAFF00200249088010BD00006C01002098
:101260004E00002070B50546002400BF00F082F952
:1012700080B90DA10E48FEF7A1FF044654B13A21F2
:101280002046FEF7ADFF044614B1641C204670BD35
:101290000020FCE7052003F09FF8681E85B2002DB2
:1012A000E4DC0020F3E700004950442C000000007B
:1012B0006C01002008B50121042001F0A1FE1020DE
:1012C0008DF803008002ADF8000003208DF80200C5
:1012D00069463D4800F068F900224FF480413A48E1
:1012E00000F043FAFA2003F077F801229103364820
:1012F00000F03BFA4FF4FA7003F06EF8FFF7A4FF2A
:1013000032A1344802F032FA03E04FF4FA7003F0ED
:1013100063F831A131A000F0DFF80028F5D131A148
:101320002C4802F023FA2EA130A000F0D5F84FF49B
:10133000FA7003F051F82AA12FA000F0CDF84FF475
:10134000FA7003F049F830A1224802F00FFA03E0E6
:101350004FF4FA7003F040F81FA12EA000F0BCF883
:101360000028F5D12FA11B4802F000FA03E04FF44A
:10137000FA7003F031F818A12EA000F0ADF80028A3
:10138000F5D130A1134802F0F1F903E04FF4FA70FF
:1013900003F022F82EA130A000F09EF80028F5D12D
:1013A00036A10C4802F0E2F903E04FF4FA7003F0C2
:1013B00013F836A137A000F08FF80028F5D140A12E
:1013C000044802F0D3F908BD00100140302E20413E
:1013D000540D0A00003801404F4B000041540D0AE3
:1013E00000000000312E5253540D0A0041542B527C
:1013F00053540D0A0000000041542B434950434C04
:101400004F53450D0A000000322E2043574D4F44E4
:10141000450D0A0041542B43574D4F44453D310D76
:101420000A000000332E2041542B435744484350B8
:101430000D0A000041542B4357444843503D312C82
:10144000310D0A00342E2043574A41500D0A000046
:10145000474F54204950000041542B43574A4150B4
:101460003D22434D43432D45376854222C22663597
:10147000657039343837220D0A000000352E2043BC
:10148000495053544152540D0A000000434F4E4EF0
:101490004543540041542B43495053544152543D09
:1014A00022544350222C22742E796F796F6C696616
:1014B000652E66756E222C313838330D0A00000017
:1014C000362E204553503832363620496E69742006
:1014D0004F4B0D0A000000002DE9F04104460D4677
:1014E000C8262046FEF786FE87B23A4621460D48BA
:1014F00002F060F90FE000F03DF848B929460A48CB
:10150000FEF75CFE20B1FFF79FFE0020BDE8F081F2
:101510000A2002F061FF3000A6F10101CEB2EAD14B
:101520000120F3E7004400406C01002030B589B091
:1015300004460D46FFF788FE2A4608A101A802F0DE
:1015400053F90AA101A8FFF7C7FF20B92A4621468F
:10155000074802F02FF909B030BD000041542B4379
:10156000495053454E443D25640D0A003E0000009D
:10157000004400400A48008808B901207047084824
:10158000008808490988884203D10020044908805E
:10159000F4E703480088034908800120EEE70000D3
:1015A0004E000020500000202DE9F04102460025A9
:1015B0000026002000230024002791F803C00CF02F
:1015C0000F0591F803C00CF0100CBCF1000F03D014
:1015D00091F802C04CEA050591F800C0BCF1000F7B
:1015E00031D0146800202BE04FF0010C0CFA00F30E
:1015F000B1F800C00CEA03069E4220D183004FF0F0
:101600000F0C0CFA03F7BC4305FA03FC4CEA040484
:1016100091F803C0BCF1280F06D14FF0010C0CFA71
:1016200000FCC2F814C00AE091F803C0BCF1480FF6
:1016300005D14FF0010C0CFA00FCC2F810C0401CA0
:101640000828D1D31460B1F800C0BCF1FF0F34DD1D
:10165000546800202EE000F1080C4FF0010808FA51
:101660000CF3B1F800C00CEA03069E4221D18300BE
:101670004FF00F0C0CFA03F7BC4305FA03FC4CEADD
:10168000040491F803C0BCF1280F05D100F1080C47
:1016900008FA0CF8C2F8148091F803C0BCF1480FA6
:1016A00007D100F1080C4FF0010808FA0CF8C2F855
:1016B0001080401C0828CED35460BDE8F0810000A3
:1016C000F0B50A46002300240021002500F0004662
:1016D000B6F1004F02D11D4EF16901E01B4E716859
:1016E000C0F3034583B200F44016B6F5401F08D19D
:1016F00021F07061154E766826F07066134F7E609B
:1017000012E000F48016B6F5801F06D1032606FA13
:1017100005F4A14341F0706106E0460D360103FA7D
:1017200006F6B14341F0706122B1460D360103FA6D
:1017300006F6314300F00046B6F1004F02D1034EE9
:10174000F16101E0014E7160F0BD00000000014058
:101750000246002093680B400BB1012000E00020FE
:10176000704741617047016170470AB1016100E053
:101770004161704700BFFEE708B50121242001F058
:101780003FFC4FF48070ADF8000010208DF803008E
:1017900003208DF8020069460948FFF705FF4FF462
:1017A00080710748FFF7DFFF0420ADF800006946AD
:1017B0000448FFF7F9FE04210248FFF7D4FF08BDF3
:1017C00000080140001401402DE9F84F2748008827
:1017D000FEF797FF81464FF08B41FEF7CCFD804628
:1017E000FEF7C4FF06464FF06632214BFEF7A8FE17
:1017F0000446FEF7E7FF824651461E48FEF783FD8A
:1018000005465146FEF7B7FD04461B49FEF781FD2C
:1018100083464FF07E515046FEF7F0FF08D217483E
:10182000006828B9584600F033F8012013490860D1
:10183000134801685846FEF79EFD0090FEF796FF9C
:1018400006464FF080420F4B03F02EFB80464FF0D0
:1018500080420D4BFEF774FE0446FEF7B3FF0B49C2
:10186000086008460068BDE8F88F00004C000020C2
:1018700066660A40333353400000A0404000002019
:10188000440000208D9700C0332F83404800002083
:101890002DE9F047824600220B4B4FF080400B4968
:1018A00003F002FB06460F465046FEF75FFF8046F8
:1018B00032463B46FEF7B6FE0446FEF783FF044978
:1018C0000860BDE8F0870000B6DBDEBF24AEA03FB5
:1018D0004400002010B50446207B012802D1206876
:1018E00002F0C6FD002020606060A060207310BD83
:1018F0000246002301230DE002F07F000870D209A8
:101900002AB1087840F080000870491C01E01846B0
:1019100070475B1C042BEFDD4FF0FF30F8E770B52C
:1019200004460E460025206898B9012020733046F1
:1019300002F0ECFE20602068E0B100206060A6604C
:1019400003E00020216848556D1CA068A842F8D823
:1019500010E00220207303E00020216848556D1C30
:10196000A068A842F8D800206060A068B04201D208
:101970000020206070BD00002DE9FF4F83B082463B
:101980008B469146159C0025002002900F27019060
:101990004846FEF72FFC0FFA80F8B9F1000F03D18B
:1019A000012007B0BDE8F08F08F10200384487B28B
:1019B000109808B145F00205129878B145F0040579
:1019C0001298FEF717FCC0B202901398FEF712FCB3
:1019D00001460298001D0844384487B2119820B18E
:1019E000012804D0022808D104E000BF07E045F038
:1019F0000C0504E045F0140501E00220D1E700BF2A
:101A0000149808B145F02405BAF1000F02D0BBF1DB
:101A1000000F01D10320C4E745F0C0055046FEF792
:101A2000E9FB06465846FEF7E5FB3044001D384406
:101A300087B239462046FFF772FF206808B90420B4
:101A4000AFE739462068FEF7AEFB10216268501CF4
:101A5000606020688154D4E90023D118781FFFF713
:101A600047FF00B201900198002804DA2046FFF7F2
:101A700031FF052095E76168019808446060002106
:101A80006268501C60602068815404216268501CA8
:101A90006060206881544D216268501C606020683D
:101AA000815451216268501C606020688154542127
:101AB0006268501C6060206881546268501C6060DD
:101AC0002068815404216268501C60602068815441
:101AD0006168481C6060206845540698010A626885
:101AE000501C6060206881540698C1B26268501C26
:101AF000606020688154C8F307216268501C6060F0
:101B0000206881546268501C6060206800F8028080
:101B1000D4E90012881842464946FEF772FB606815
:101B20004044606005F00400B8B30026139808B97B
:101B300038A013901298FEF75DFB86B2310A6268F6
:101B4000501C6060206881546268501C606020688E
:101B50008654D4E90012881832461299FEF751FBD8
:101B60006068304460601398FEF744FB86B2310A27
:101B70006268501C6060206881546268501C60601C
:101B800020688654D4E90012881832461399FEF76B
:101B900038FB60683044606000BF05F08000C8B169
:101BA0005046FEF727FB86B2310A6268501C60601F
:101BB000206881546268501C606020688654D4E9B3
:101BC0000012881832465146FEF71BFB606830440D
:101BD000606000BF05F04000C8B15846FEF70AFB40
:101BE00086B2310A6268501C606020688154626865
:101BF000501C606020688654D4E900128818324670
:101C00005946FEF7FEFA60683044606000BF00206D
:101C1000C7E60000000000002DE9FF4F83B08346B7
:101C200017469946139C002500260020029001903B
:101C30008046BBF1000F03D1012007B0BDE8F08F53
:101C400000260AE00498805D232803D00498805D74
:101C50002B2801D10220F0E7761C0498805D002833
:101C6000F0D148F03008119808B148F0010806EBAF
:101C70000900851C109820B1012804D002280AD13F
:101C800005E000BF09E048F00208AD1C05E048F09F
:101C90000408AD1C01E00320CFE700BF8FB3387804
:101CA000022821D14FF0000A00BF50460AF1010A74
:101CB000385C7D28F9D1AAF1030A0AF107000290E5
:101CC0000298A9EB000AE81CA0EB0A012046FFF7E6
:101CD00026FE206808B90420AFE7EA1CA2EB0A013F
:101CE0002068FEF760FA19E0691D2046FFF717FE2D
:101CF000206808B90420A0E7691D2068FEF753FAA0
:101D00000CE0FFE7691D2046FFF709FE206808B9CF
:101D1000042092E7691D2068FEF745FA6168481CB7
:101D20006060206800F80180D4E90002811828462C
:101D3000FFF7DEFD01900198002804DA2046FFF746
:101D4000C9FD052079E76168019808446060C6F321
:101D500007216268501C6060206881546268501CD2
:101D6000606020688654D4E90012881832460499CD
:101D7000FEF747FA606830446060109860B14FEA3F
:101D80001B216268501C6060206881546268501C8E
:101D90006060206800F802B0C7B1387802280BD123
:101DA000D4E9001288183946029AFEF7E3F961680F
:101DB00002980844606009E0D4E9001288184A4695
:101DC0003946FEF7D7F9606848446060002034E780
:101DD00070B505460C4604212046FFF7A0FD20689B
:101DE00008B9012070BD40216268501C6060206805
:101DF000815402216268501C60602068815429125D
:101E00006268501C6060206881546268501C606089
:101E1000206885540020E5E770B505460C4604218E
:101E20002046FFF77CFD206808B9012070BD7021B5
:101E30006268501C60602068815402216268501CF6
:101E400060602068815429126268501C60602068BC
:101E500081546268501C6060206885540020E5E76A
:101E600070B505460C4604212046FFF758FD206852
:101E700008B9012070BD50216268501C6060206864
:101E8000815402216268501C6060206881542912CC
:101E90006268501C6060206881546268501C6060F9
:101EA000206885540020E5E770B505460C460421FE
:101EB0002046FFF734FD206808B9012070BD62217B
:101EC0006268501C60602068815402216268501C66
:101ED00060602068815429126268501C606020682C
:101EE00081546268501C6060206885540020E5E7DA
:101EF0002DE9FF5F8046174699460E9C0026B246A4
:101F0000B3460025B8F1000F03D1012004B0BDE8AD
:101F1000F09F0BE057F8250008B90220F6E757F8C4
:101F20002500FEF767F90644681CC5B24D45F1DB94
:101F300009EB4900801C00EB060A0AF10501204666
:101F4000FFF7EDFC206808B90320DFE78221626813
:101F5000501C606020688154D4E90002811850460A
:101F6000FFF7C6FC0FFA80FBBBF1000F04DA204636
:101F7000FFF7B0FC0420C9E76068584460604FEA8E
:101F800018216268501C6060206881546268501C8F
:101F90006060206800F80280002524E057F82500E2
:101FA000FEF728F90646C6F307216268501C6060F8
:101FB000206881546268501C606020688654D4E9AF
:101FC0000023D01857F825103246FEF71AF960683A
:101FD000304460600198C1B26268501C6060206843
:101FE0008154681CC5B24D45D8DB00208EE7F0B5A2
:101FF00004460D462646012300201060002114E00F
:10200000775C07F07F07106807FB03001060705CC7
:1020100000F0800008B9481CF0BDDB01B3F5001FDB
:1020200002D36FF00100F7E7491CA942E8DB4FF04B
:10203000FF30F1E72DE9F84380460C4615461E4671
:102040002F2108F10600FEF7CBF80746002000908C
:1020500017B90120BDE8F8837F1C6A46042108F106
:102060000100FFF7C4FF252002F050FB206020682C
:1020700008B90220EEE725212068FEF794F8242213
:1020800039462068FEF776F8243700982C383080DF
:102090003188481C02F03AFB2860286820B9206883
:1020A00002F0E6F90320D5E73288511C2868FEF7D4
:1020B0007AF8328839462868FEF75CF80020C9E7CC
:1020C00001464878022801D001207047887810B175
:1020D0008878012801D1C878F7E7FF20F5E70000EC
:1020E0002DE9FC5F81460D4614461E46DDE90C8B4A
:1020F00099F8000000F00F0A002001900AF0080093
:102100000090CAF341008BF8000001AA042109F1F4
:102110000100FFF76CFF4844471C0198022802D3D6
:102120000AF0010010B1FF20BDE8FC9F78783978F3
:1021300040EA012020802088801C0199884201D932
:10214000FF20F1E754A1B81CFEF738F808B10F20C2
:10215000EAE79BF8000020B101283DD0022877D1A2
:102160003BE0009808B1FF20DEE72188481C02F020
:10217000CDFA2860286808B9FF20D5E72288511CCD
:102180002868FEF710F82288B91C2868FDF7F2FFCE
:102190000198801E2188401AA8F80000B8F80010A5
:1021A000481C02F0B3FA3060306820B9286802F0A9
:1021B0005FF9FF20B8E7B8F80020511C3068FDF740
:1021C000F2FFB8F80020B4F800C0BB1C0CEB030110
:1021D0003068FDF7CFFF4FE000BF2088801C0199D9
:1021E000884201D9FF209FE72088C01C395C2088E5
:1021F000801C385C41EA00210E9801800E9808B9D5
:10220000FF2091E72188481C02F080FA28602868A6
:1022100008B9FF2088E72288511C2868FDF7C3FF12
:102220002288B91C2868FDF7A5FF0198001F2188A6
:10223000401AA8F80000B8F80010481C02F066FA2E
:102240003060306828B9286802F012F9FF206BE787
:1022500010E0B8F80020511C3068FDF7A4FFB8F872
:102260000020B4F800C03B1D0CEB03013068FDF703
:1022700081FF01E0FF2057E700BF2B212846FDF733
:10228000AFFF20B923212846FDF7AAFF08B1FF20A0
:102290004AE7002048E700002463726571000000EF
:1022A00001464878022801D001207047887820B97B
:1022B000C8780A2801D10020F7E70120F5E7014698
:1022C0004878022801D001207047887820B9C87862
:1022D0000A2801D10020F7E70120F5E701464878F8
:1022E000022801D001207047887820B9C8780A28D0
:1022F00001D10020F7E70120F5E7024650780228D7
:1023000001D0012070479078B0EB112F05D1D07823
:10231000CBB2984201D10020F4E70120F2E700009F
:10232000F8B50446FF2720780511012D01DB0E2D9D
:1023300001DD3846F8BD032D24D1002000906A4607
:102340000421601CFFF753FE2044461C009802281D
:1023500003D3207800F0010008B1FF20EAE770788D
:10236000317840EA0120801C0099884201D9FF2081
:10237000E0E706A1B01CFDF721FF08B10F2700E040
:10238000032700E02F463846D4E700002463726537
:10239000710000000146FF208A78A2B9CA78142A89
:1023A00011D10A7932B1012A05D0022A04D0802A3B
:1023B00006D103E000BF00BF002003E0012001E0E0
:1023C000022000BF00BF7047014601208A781AB979
:1023D000CA781E2A00D10020704700BFFEE7704770
:1023E00070B5002100230F22C47804B3154C246873
:1023F00004F4E064C4F5E064210AC1F10403CA40B6
:10240000447804FA03F184781440214309010E4C06
:102410000678A155047804F01F050124AC40057826
:102420006D11AD0005F1E025C5F8004109E0047823
:1024300004F01F050124AC40044D0678761145F8E0
:10244000264070BD0CED00E000E400E080E100E01B
:1024500002490143024A1160704700000000FA057A
:102460000CED00E070B5002419E004F1B001C8B231
:10247000002100F083F90021084600F07FF90021D7
:10248000102000F07BF9002505E00121002000F07C
:1024900075F9681CC5B2802DF7DB601CC4B2082C2E
:1024A000E3DB70BD08B50121042000F0A9FDB020D8
:1024B000ADF8000010208DF8030003208DF8020015
:1024C00069465548FFF770F8B0215348FFF74BF9BC
:1024D0000121082000F094FD40F20310ADF8000047
:1024E00010208DF8030003208DF8020069464B4848
:1024F000FFF75AF840F203114848FFF734F9012179
:102500004648FFF730F9642001F066FF0121434897
:10251000FFF727F9C82001F05FFF01213F48FFF7CF
:1025200022F90021AE2000F029F90021084600F030
:1025300025F90021102000F021F90021402000F0B1
:102540001DF90021812000F019F90021CF2000F0B1
:1025500015F90021A12000F011F90021C82000F098
:102560000DF90021A62000F009F90021A82000F0B3
:1025700005F900213F2000F001F90021D32000F0EF
:10258000FDF80021084600F0F9F80021D52000F000
:10259000F5F80021802000F0F1F80021D92000F0AA
:1025A000EDF80021F12000F0E9F80021DA2000F038
:1025B000E5F80021122000F0E1F80021DB2000F016
:1025C000DDF80021402000F0D9F80021202000F0A3
:1025D000D5F80021022000F0D1F800218D2000F074
:1025E000CDF80021142000F0C9F80021A42000F04B
:1025F000C5F80021A62000F0C1F80021AF2000F0AE
:10260000BDF80021AF2000F0B9F8FFF72BFF002143
:10261000084600F005F808BD00080140000C014024
:1026200070B504460D4605F1B001C8B2002100F0B6
:10263000A5F8102141EA1410002100F09FF804F0E1
:102640000F0141F00100002100F098F870BD00007A
:102650002DE9F04107460E46904600250024A8F1DA
:102660002000C5B27F2F02DD0027B01CC6B2314664
:102670003846FFF7D5FF002408E004EB05110F4AA8
:10268000505C012100F07AF8601CC4B2082CF4DB25
:10269000701CC1B23846FFF7C3FF002409E004EB09
:1026A00005110831054A505C012100F067F8601CF3
:1026B000C4B2082CF3DBBDE8F0810000F35A000837
:1026C0002DE9FF5F074691461D460E9E4FF0000A1A
:1026D000002433E0281B401EC1B20A2002F04CF84F
:1026E000B9FBF0F00A21B0FBF1F201FB1208BAF1DC
:1026F000000F13D1681EA04210DDB8F1000F0BD1FE
:10270000B34606EBDB71491001FB0471C8B220220D
:102710000199FFF79DFF0FE04FF0010AB34606EB6A
:10272000DB71491001FB0471C8B208F13001CAB273
:102730000199FFF78DFF00BF601CC4B2AC42C9DB3A
:10274000BDE8FF9F2DE9F04104460F4615460026DF
:102750000EE0AA5D39462046FFF77AFF04F1080033
:10276000C4B2782C02DD0024B81CC7B2701CC6B2FB
:10277000A85D0028EDD1BDE8F081000070B50446E9
:102780000E4626B102211848FEF7EDFF03E00221B4
:102790001548FEF7E6FF10211448FEF7E2FF00257A
:1027A00017E020211148FEF7DCFF04F0800020B183
:1027B00080210E48FEF7D7FF03E080210B48FEF78B
:1027C000D0FF20210948FEF7CEFF6006040E681CEA
:1027D000C5B2082DE5DB10210448FEF7C4FF022135
:1027E0000148FEF7C0FF70BD000C01400008014029
:1027F00030B58BB000200790089009900A90012511
:1028000030A033A334A23DA10090484800F0AEFFB1
:1028100007A8002102910391CDE9041000912B0239
:1028200028A201912AA12CA0FFF7A6F8002842D1E6
:10283000089A91B20798FEF779FEFA20FEF712FD8A
:102840000446002C33D02046FFF76AFD02282ED123
:102850002046FFF735FC062823D2DFE800F0030905
:102860000E13181D32A1314800F080FF00251DE035
:1028700034A12E4800F07AFF18E039A12B4800F06F
:1028800075FF13E03FA1294800F070FF0EE045A15D
:10289000264800F06BFF09E04BA1244800F066FFDA
:1028A00004E054A1214800F061FF00BF00BF07A869
:1028B000FFF710F803E056A11C4800F057FF284628
:1028C0000BB030BD353631363838333900000000B2
:1028D000313233343536000066353835633364358C
:1028E000663439396666656139623731306631334D
:1028F0003730396138353564000000004F6E654E61
:1029000065745F4465764C696E6B0D0A50524F4991
:10291000443A2025732C09415549463A2025732C09
:102920000944455649443A25730D0A0000380140D0
:10293000546970733A09C1ACBDD3B3C9B9A60D0AC5
:10294000000000005741524E3A09C1ACBDD3CAA79E
:10295000B0DCA3BAD0ADD2E9B4EDCEF30D0A0000DD
:102960005741524E3A09C1ACBDD3CAA7B0DCA3BA95
:10297000B7C7B7A8B5C4636C69656E7469640D0A9E
:10298000000000005741524E3A09C1ACBDD3CAA75E
:10299000B0DCA3BAB7FECEF1C6F7CAA7B0DC0D0A09
:1029A000000000005741524E3A09C1ACBDD3CAA73E
:1029B000B0DCA3BAD3C3BBA7C3FBBBF2C3DCC2EB7F
:1029C000B4EDCEF30D0A00005741524E3A09C1ACA6
:1029D000BDD3CAA7B0DCA3BAB7C7B7A8C1B4BDD32B
:1029E00028B1C8C8E7746F6B656EB7C7B7A8290D63
:1029F0000A0000004552523A09C1ACBDD3CAA7B083
:102A0000DCA3BACEB4D6AAB4EDCEF30D0A00000012
:102A10005741524E3A094D5154545F5061636B65B2
:102A200074436F6E6E656374204661696C65640DF6
:102A30000A00000070B588B005460C4600200490DE
:102A400005900690079023462A4610A1174800F0EB
:102A50008DFE2046FDF7CEFB064604A8012100228C
:102A600000923346CDE901210390224629460A20EF
:102A7000FFF7D2F838B9059A91B20498FEF756FDDF
:102A800004A8FEF727FF08B070BD00005075626C07
:102A900069736820546F7069633A2025732C204D48
:102AA00073673A2025730D0A0000000000380140CA
:102AB0002DE9F04F8FB0814600200B900C900D90C7
:102AC0000E900A9009900890079000270690002623
:102AD000002482464846FFF723FC0746F81E0D28CF
:102AE00074D2DFE800F01C9EA7C1DD73E673F573B6
:102AF0007373070007AB0AAA09A94846FFF79AFAB9
:102B000006465EB9BDF81C00009091A19948DDE928
:102B1000092300F02BFE0BA8FEF7DCFEE9E0964847
:102B200006A907AA0AABCDE90021029008AA09A9C3
:102B30004846FFF7D5FA0646002E71D1BDF81C00B5
:102B40000A99CDE90010BDF820308CA18948099A76
:102B500000F00CFE0A9801F0BDFB8046B8F1000FB2
:102B600008D101F091FB83465A4693A1814800F0B9
:102B7000FDFD21E095A1404601F08CFB054695A1A5
:102B80007C482A6A00F0F2FD92A17A482A6900F096
:102B9000EDFD95A12869FDF711FB68B193A14046B1
:102BA00001F078FB0546686918B10020914908607A
:102BB00002E001208F490860404601F039FB9DF892
:102BC0001800012803D0022828D113E08EE00BA9B9
:102BD00069480088FFF7FCF858B987A1654800F0FC
:102BE000C5FD0C9A91B20B98FEF7A0FC0BA8FEF75E
:102BF00071FE14E00BA960480088FFF731F958B95D
:102C000083A15C4800F0B2FD0C9A91B20B98FEF7DC
:102C10008DFC0BA8FEF75EFE01E001E000BF00BFE7
:102C200067E04846FFF73CFB18B97FA1514800F028
:102C30009DFD5EE04846FFF751FBA0B982A14D48DB
:102C400000F094FD0BA90A20FFF72EF958B984A1D2
:102C5000484800F08BFD0C9A91B20B98FEF766FC89
:102C60000BA8FEF737FE44E0434801884846FFF7CB
:102C700044FBA0B980A13F4800F078FD0BA90A20D1
:102C8000FFF7CAF858B982A13A4800F06FFD0C9AD4
:102C900091B20B98FEF74AFC0BA8FEF71BFE28E04A
:102CA0004846FFF70CFB18B980A1324800F05EFDE2
:102CB0001FE04846FFF76EFB28B982A12D4800F0BF
:102CC00055FD04E004E086A12A4800F04FFD10E025
:102CD0004846FFF779FB20B988A1264800F046FD59
:102CE00003E08DA1234800F041FD02E04FF0FF36E4
:102CF00000BF00BFFEF7A8FA701C10B90FB0BDE806
:102D0000F08F7D210A98FDF76BFA0446A4B1701C80
:102D100090B1641C06E014F8012B50460AF1010A38
:102D200003A90A542078302802DB20783928F2DD04
:102D300003A8FDF789FA82460F2F01D0032F05D192
:102D4000099801F095FB0A9801F092FB00BFD5E7C6
:102D5000636D6469643A2025732C207265713A2092
:102D600025732C207265715F6C656E3A2025640DA9
:102D70000A0000000038014052000020746F7069A2
:102D8000633A2025732C20746F7069635F6C656EE5
:102D90003A2025642C207061796C6F61643A20259B
:102DA000732C207061796C6F61645F6C656E3A2082
:102DB00025640D0A000000004572726F7220626582
:102DC000666F72653A205B25735D0A0074617267F5
:102DD000657400006A736F6E5F76616C75653A208A
:102DE0005B25735D0A0000004C45440076616C75FC
:102DF00065000000A0012142546970733A095365CF
:102E00006E64205075626C69736841636B0D0A00D3
:102E1000546970733A0953656E64205075626C6929
:102E200073685265630D0A00546970733A094D5115
:102E30005454205075626C6973682053656E642029
:102E40004F4B0D0A00000000546970733A09526537
:102E500076205075626C6973685265630D0A0000D4
:102E6000546970733A0953656E64205075626C69D9
:102E7000736852656C0D0A00546970733A095265A3
:102E800076205075626C69736852656C0D0A00009B
:102E9000546970733A0953656E64205075626C69A9
:102EA0007368436F6D700D0A000000005469707301
:102EB0003A09526576205075626C697368436F6D8C
:102EC000700D0A00546970733A094D5154542053DF
:102ED0007562736372696265204F4B0D0A000000D2
:102EE000546970733A094D51545420537562736399
:102EF00072696265204572720D0A00005469707330
:102F00003A094D51545420556E537562736372697A
:102F10006265204F4B0D0A00546970733A094D5198
:102F2000545420556E53756273637269626520450F
:102F300072720D0A0000000070B586B004460D469E
:102F400000260020029003900490059007E054F8BA
:102F500026200DA1124800F009FC701CC6B2AE423A
:102F6000F5DB02A82B462246002100901420FEF734
:102F7000BFFF38B9039A91B20298FEF7D7FA02A8B8
:102F8000FEF7A8FC06B070BD537562736372696288
:102F90006520546F7069633A2025730D0A000000A4
:102FA000003801407047000001460020034A506885
:102FB00020F4404008435060704700000010024079
:102FC00029B1064A52690243044B5A6104E0034A9C
:102FD00052698243014B5A61704700000010024061
:102FE00029B1064AD2690243044BDA6104E0034A7C
:102FF000D2698243014BDA61704700000010024041
:1030000029B1064A92690243044B9A6104E0034ADB
:1030100092698243014B9A617047000000100240A0
:1030200030B500210022002400232D4D6D6805F0ED
:103030000C0121B1042905D0082923D105E0294D2F
:10304000056022E0274D05601FE0254D6D6805F401
:103050007012234D6D6805F48034022505EB924211
:103060001CB9214D554305600BE01D4D6D6805F4FD
:1030700000351DB11C4D5543056002E0194D554307
:10308000056002E0174D056000BF00BF144D6D687C
:1030900005F0F0010909154D6B5C0568DD404560E0
:1030A0000F4D6D6805F4E061090A104D6B5C4568D1
:1030B000DD4085600A4D6D6805F46051C90A0B4D0D
:1030C0006B5C4568DD40C560054D6D6805F44041A9
:1030D000890B074D6B5CC568B5FBF3F5056130BD29
:1030E0000010024000127A0000093D002C00002070
:1030F0003C000020704710B500F002F810BD000041
:103100000CB50020019000903348006840F48030F6
:103110003149086000BF3048006800F4003000907A
:103120000198401C0190009818B90198B0F5A06F63
:10313000F1D12948006800F4003010B1012000905E
:1031400001E0002000900098012843D12348006846
:1031500040F01000214908600846006820F0030094
:1031600008600846006840F0020008601A4840689D
:10317000194948600846406848600846406840F47D
:10318000806048600846406820F47C10486008462B
:10319000406840F4E81048600846006840F08070DD
:1031A000086000BF0C48006800F000700028F9D0EB
:1031B0000948406820F00300074948600846406815
:1031C00040F00200486000BF0348406800F00C0077
:1031D0000828F9D10CBD0000001002400020024078
:1031E000042808D14FF0E021096941F004014FF0B3
:1031F000E022116107E04FF0E021096921F00401AC
:103200004FF0E022116170477047000010B513487D
:10321000006840F001001149086008464068104904
:1032200008400E494860084600680E4908400B49AE
:1032300008600846006820F480200860084640685E
:1032400020F4FE0048604FF41F008860FFF753FF32
:103250004FF000600449086010BD000000100240FB
:103260000000FFF8FFFFF6FE08ED00E010B50121B9
:10327000044800F048F818B10121024800F034F881
:1032800010BD0000000400407FB505460C4601213A
:103290000220FFF7A5FEADF80850ADF8044000206D
:1032A000ADF80A00ADF8060001A90E4800F046F896
:1032B000012211460B4800F037F81D208DF8000060
:1032C00000208DF8010003208DF8020001208DF808
:1032D00003006846FFF784F80121024800F007F870
:1032E0007FBD000000040040CA430282704721B144
:1032F000028842F00102028004E002884FF6FE7369
:103300001A400280704730B5024600200023002496
:10331000158A05EA0103958905EA010413B10CB188
:10332000012000E0002030BD1AB183890B43838166
:1033300002E083898B43838170470000002202886A
:103340001D4B98420ED01D4B98420BD0B0F1804FD0
:1033500008D01B4B984205D01A4B984202D01A4B0A
:10336000984204D14FF68F731A404B881A43174B7B
:10337000984207D0164B984204D04FF6FF431A40AC
:10338000CB881A4302808B8883850B8803850A4B80
:1033900098420BD0094B984208D00E4B984205D06A
:1033A0000D4B984202D00D4B984201D10B7A038607
:1033B0000123838270470000002C0140003401404B
:1033C0000004004000080040000C004000100040D5
:1033D000001400400040014000440140004801400A
:1033E00010B540F22551044800F050F818B12021E2
:1033F000014800F029F810BD0038014010B540F236
:1034000025510E4800F042F8B0B10D4800888028E0
:1034100002D300200A4908800848001D0088C1B274
:10342000074802880088401C054B188005488154D5
:103430002021024800F008F810BD000000440040C0
:103440004E0000206C01002001F40072B2F5007FF4
:1034500000D100BFCA430280704721B1828942F483
:103460000052828104E082894DF6FF731A40828106
:10347000704702460020B1F5007F00D100BF1388DD
:103480000B400BB1012000E00020704770B50246F0
:10349000002400230025002040F66A16B14200D126
:1034A00000BFC1F3421501F01F03012606FA03F322
:1034B000012D02D19689334006E0022D02D1168AF1
:1034C000334001E0968A33400C12012606FA04F4D8
:1034D0001688344013B10CB1012000E0002070BD0B
:1034E000F0B50346002400260025002040F66A17A8
:1034F000B94200D100BF1846C1F3421401F01F06C3
:10350000012707FA06F5012C01D10C3004E0022C4A
:1035100001D1103000E014301AB107682F43076062
:1035200002E00768AF430760F0BD00002DE9F047F7
:1035300086B005460E460024A24600BFA1460027DD
:10354000B08900B100BF2F462C8A4CF6FF700440B2
:10355000F08804432C82AC894EF6F3100440B08806
:1035600031890843718908430443AC81AC8A4FF622
:10357000FF400440B0890443AC8201A8FFF750FD2E
:103580001F48874202D1DDF810A001E0DDF80CA051
:10359000A88900F4004040B10AEBCA0000EB0A1011
:1035A00031684900B0FBF1F807E00AEBCA0000EB14
:1035B0000A1031688900B0FBF1F86420B8FBF0F024
:1035C00004012009642101FB1089A88900F400404E
:1035D00040B1322000EBC900B0FBF1F000F0070071
:1035E000044308E0322000EB09106421B0FBF1F045
:1035F00000F00F0004432C8106B0BDE8F087000006
:1036000000380140C1F308028280704700BFFEE726
:1036100010B586B0044601210420FFF7F1FC01211A
:103620008803FFF7EDFC18208DF817004FF40070A9
:10363000ADF8140003208DF8160005A91E48FDF70B
:10364000B3FF04208DF817000002ADF8140003202A
:103650008DF8160005A91848FDF7A6FF0194002073
:10366000ADF810000C20ADF80E000020ADF80C00F5
:10367000ADF80A00ADF8080001A91048FFF756FFA1
:1036800001210E48FFF7E9FE012240F225510B48C7
:10369000FFF726FF25208DF8000001208DF803009C
:1036A00000208DF8010002208DF802006846FEF728
:1036B00097FE06B010BD0000000801400038014030
:1036C00010B586B0044601210420FFF799FC0121C2
:1036D0004804FFF785FC18208DF817000420ADF88A
:1036E000140003208DF8160005A91E48FDF75CFFA5
:1036F00004208DF817000820ADF8140003208DF881
:10370000160005A91748FDF74FFF01940020ADF8FA
:1037100010000C20ADF80E000020ADF80C00ADF844
:103720000A00ADF8080001A90F48FFF7FFFE0121CC
:103730000D48FFF792FE012240F225510A48FFF79B
:10374000CFFE26208DF8000001208DF80300002018
:103750008DF801008DF802006846FEF741FE06B0C4
:1037600010BD000000080140004400400FB430B517
:10377000CBB0054601AC50A800904FF4947101A85D
:10378000009B4F9A00F044F8002000900BE014F8E2
:10379000011B2846FFF736FF00BF40212846FFF7F0
:1037A00068FE0028F9D020780028F0D14BB030BC5A
:1037B0005DF814FB2DE9F04107460C46154600263E
:1037C0000DE014F8011B3846FFF71CFF00BF402135
:1037D0003846FFF74EFE0028F9D0701C86B2AE4284
:1037E000EFDBBDE8F08100000FB4084B10B504A971
:1037F00002AA039800F074F9044602A9002000F020
:1038000011FD204610BC5DF814FB000025420008A5
:103810007CB5491E1C461546CDE90001044B6A469D
:103820002146284600F05CF9009A002111707CBD09
:103830000F420008490050EAC12018BF04204A0D79
:1038400018BF40F0010040F2FF72B2EB515F08BFB9
:1038500040F00200012808BF05207047004870476B
:10386000680000202DE9F0414F1E00EBC70104461F
:10387000D1E9000115461E4637F006020DD02A4652
:103880003346FCF75DFE7F1E04EBC703D3E900233C
:10389000FCF7AFFD37F00602F1D1022F25D0042F3F
:1038A00013D0062F18BFBDE8F0812A463346FCF737
:1038B00047FED4E90A23FCF79CFD2A463346FCF771
:1038C0003FFED4E90823FCF794FD2A463346FCF773
:1038D00037FED4E90623FCF78CFD2A463346FCF775
:1038E0002FFED4E90423FCF784FD2A463346FCF777
:1038F00027FED4E90223FCF77CFD2A463346FCF779
:103900001FFED4E90023BDE8F041FCF772BD0000C2
:103910000022134610460149FCF784BE0000F03F28
:10392000FCF767BD0022134610461146FCF77ABE2D
:1039300040F2013200204FF0E041FDF7ADB8000049
:10394000024A00201107FDF7A7B8000001FDFFFFA4
:1039500002E008C8121F08C1002AFAD17047704758
:10396000002001E001C1121F002AFBD170470000B6
:103970000149086070470000680000202DE9FF5FE2
:10398000DDE90220010DDDF838B0024318D044F61D
:103990001050A1F2FF3141430D140F98012820D09F
:1039A000A5EB0B00401C5FEA000A4FF00004474EF5
:1039B000DFF81C91A046504616D5CAF1000728E052
:1039C0000F98012443A2012808D0002100980F9BE2
:1039D000C0E90021C0E90243BDE8FF9F6FEA0B0187
:1039E000F4E7CBF10000DEE7074612E0F80707D066
:1039F0002246334640464946FCF7A2FD80468946AA
:103A00002246334610461946FCF79AFD04460E46F8
:103A10007F10002FEAD1DDE90201BAF1000F424622
:103A20004B4602DAFCF78CFD01E0FCF7FBFD044697
:103A30000E460022284BFCF7ADFE03D84FF0FF30B6
:103A4000014607E00022254B20463146FCF7D1FC19
:103A5000FDF739F8102409E0002C0ADB0A220023C4
:103A6000FCF7ECFE019B30321A55641E50EA01024D
:103A7000F2D1641C019AC4F1110314440F9A012A73
:103A800003D0012208430DD10AE0084304D00020EE
:103A90004FF0110B0F9080E7A3EB0B056D1E0DE0AF
:103AA0005B4504DD4FF0000205F1010504E003DA97
:103AB0004FF00002A5F10105002AECD000980F9903
:103AC000C0E90231C0E9004586E70000000024405B
:103AD0000000F03F300000000000F0430000E03F35
:103AE0002DE9FF4F95B09B468946064600250FE21B
:103AF000252877D100242746F84A0121059400E0C3
:103B0000044316F8013F203B01FA03F01042F7D1BD
:103B100030782A2811D06FF02F033078A0F13002CE
:103B2000092A16D8059A44F0020402EB820203EB3C
:103B300042021044761C0590EFE759F8042B0592D9
:103B4000002A03DA504244F40054059044F0020481
:103B5000761C30782E2816D116F8010F44F0040494
:103B60002A280DD06FF02F023078A0F13003092BF6
:103B700009D807EB870302EB4303C718761CF3E76A
:103B800059F8047B761C30786C280FD006DC4C2862
:103B900017D068280DD06A2814D104E0742810D0FA
:103BA0007A280FD10DE044F400140AE044F48014A4
:103BB00001E044F440147278824202D104F580148A
:103BC000761C761C307866280BD013DC582877D00A
:103BD00009DC002875D04528F6D04628F4D04728BF
:103BE0001AD19DE118E0632835D0642879D0652882
:103BF00012D195E1702873D008DC6728F1D06928CC
:103C00006FD06E280DD06F2806D1B5E073282CD068
:103C1000752875D0782874D05A46179990476D1C2E
:103C200075E1C4F30250022809D003280DD0D9F859
:103C3000001004280DD00D6009F1040967E1D9F8DE
:103C40000010EA17C1E90052F6E7D9F800100D801C
:103C5000F2E70D70F0E719F8041B8DF80010002052
:103C60008DF80100EA46012003E059F804AB4FF05B
:103C7000FF3061074FF0000102D40DE008F10101AF
:103C80008846B9420FDA8045F8DB1AF80810002997
:103C9000F4D108E008F1010188468142FADB1AF804
:103CA00008100029F6D105985B46A0EB08072146CD
:103CB0003846179A00F094FA284400EB080507E00C
:103CC0004DE029E10DE01AF8010B5A46179990478B
:103CD000B8F10108F7D25B4621463846179A13E13E
:103CE00042E00A220092C4F302524FF0000A022A74
:103CF00008D059F804CB032A4FEAEC710AD00DE042
:103D000029E02AE009F1070121F00702F2E802C1E7
:103D1000914609E00FFA8CFC4FEAEC71042A03D1BA
:103D20004FFA8CFC4FEAEC71002907DA0A460021B1
:103D3000DCF1000C61EB02012D2202E0220504D52A
:103D40002B228DF80420012203E0E20701D020227B
:103D5000F7E7904659E00A2102E010220DE0102119
:103D60004FF0000A00910BE010224FF0000A44F0DF
:103D700004040827009203E008224FF0000A009292
:103D8000C4F30252022A05D059F804CB0021032AB9
:103D900008D009E009F1070121F00702F2E802C1A9
:103DA000914605E01FFA8CFC042A01D10CF0FF0CAF
:103DB0004FF00008220728D5702806D0009B83F01A
:103DC000100353EA0A0305D00EE040228DF80420C8
:103DD000012208E05CEA010206D030228DF80420BE
:103DE0008DF8050002229046009B83F0080353EAF9
:103DF0000A030AD15CEA010201D1620705D530222B
:103E00008DF804204FF001087F1E582804D034A0FC
:103E100003900EA802900DE036A0F9E753466046E5
:103E2000009AFCF70BFD84460398825C0298401EC2
:103E3000029002705CEA0100F0D1029806A9081A0B
:103E400000F1200A600702D524F4803400E0012745
:103E5000574502DDA7EB0A0000E0002000EB0A0155
:103E6000009005984144401A0590E00306D45B4653
:103E70002146179A059800F0B3F90544002706E09B
:103E800001A85A46C05D179990476D1C7F1C474595
:103E9000F6DBE0030CD55B462146179A059800F047
:103EA0009FF9054404E030205A46179990476D1C4D
:103EB0000099481E00900029F5DC08E0029802995C
:103EC0005A460078491C0291179990476D1CBAF127
:103ED0000001AAF1010AF1DC65E1000009280100F6
:103EE0003031323334353637383961626364656670
:103EF0000000000030313233343536373839414232
:103F0000434445460000000000F058F90544761C83
:103F1000307800287FF4ECAD19B02846BDE8F08F6A
:103F2000620700D4062709F1070222F0070CFCE81B
:103F30000223E14603F000485FEA080C02D00FF2CA
:103F4000702C0DE05FEA045C02D50FF2682C07E0EC
:103F50005FEAC47C02D00FF2602C01E0AFF2700C7B
:103F60004FF0FF3823F00043CDF850C065280CD047
:103F700006DC452809D046281DD047283DD13DE024
:103F8000662818D067287ED138E00021112F01DB88
:103F9000112000E0781CCDE9000106A90EA8FFF76A
:103FA000EDFCDDE90F010E9A03910021009207F16B
:103FB000010A04914DE04FF000400097CDE9011057
:103FC00006A90EA8FFF7DAFCDDE90F0203920E9BAB
:103FD00011990022DDF80CA00093049211B9791C0C
:103FE00000EB010AB7EB0A0004D4C0F1FF3007F17F
:103FF000010A0490AAEB0700019044E0012F00DAC7
:1040000001270021112F01DD112000E03846CDE904
:10401000000106A90EA8FFF7B1FCDDE90F010E9A19
:104020000391002104910092BA4621070CD4039910
:10403000514500DA8A46BAF1010F05DD009AAAF16E
:104040000101515C302908D0B84202DA10F1040FA6
:1040500006DA0121CDE9011015E0AAF10101E9E735
:10406000002805DC049901440491AAEB000102E058
:10407000411C514500DD8A460499401A401C0190BC
:104080004FF000400290200704D40198504501DB16
:10409000CDF8048000208DF84F0002980DF14F07F5
:1040A000B0F1004F25D02B200E9002984FF002085F
:1040B00000280CDA404202902D200E9007E00A21E1
:1040C0000298FCF7A5FB3031029007F8011DB8F10A
:1040D0000001A8F10108F2DC02980028EFD1791E56
:1040E0000E980870307800F0200040F0450007F886
:1040F000020D12A8C01B00F107081498007800B147
:10410000012000EB0A01019801EBE07105984144A0
:10411000401A401E0590E00306D45B462146179ADC
:10412000059800F05DF805441498007818B15A46D7
:10413000179990476D1CE00324D55B462146179ADA
:10414000059800F04DF805441CE00498002807DBB2
:10415000DDE90301884203DD0098405C179901E026
:10416000179930205A469047049805F10105401CE4
:1041700004900198401E019004D12E205A461799B0
:1041800090476D1CBAF10001AAF1010ADDDC05E0DF
:1041900017F8010B5A46179990476D1CB8F10001AA
:1041A000A8F10108F4DC5B462146179A0598ABE6B6
:1041B0002D0000002B000000200000002DE9F04140
:1041C000044600251E461746880404D405E03946F7
:1041D0002020B0476D1C641EF9D52846BDE8F0814B
:1041E0002DE9F041044600251E469046C80301D53E
:1041F000302700E02027880404D505E041463846F2
:10420000B0476D1C641EF9D52846BDE8F0814A68A8
:10421000002A06D00A68531C0B6010704868401EC4
:10422000486070470A68531C0B60107070470000AC
:1042300070B5044622E02568A08900F4807020B99A
:10424000A06810B1A068FFF7F3FFA08900F48070A8
:1042500028B9206918B10B49206909688847A089E5
:1042600000F4007028B9206A18B10649206A09686C
:10427000884720460349096888472C46002CDAD134
:1042800070BD00005C00002001480068704700001D
:104290005400002070B505460E46AC6800E0246866
:1042A0002CB13146206A00F04FF80028F7D12046A3
:1042B00070BD000010B528200549096888470446EC
:1042C0001CB128212046FBF76EFF204610BD0000E0
:1042D0005800002010B5044600221146204600F088
:1042E00001F810BD2DE9F04780460D461646002422
:1042F000FFF7E0FF07460020124908600FB9BDE84C
:10430000F087404601F0ACFA81464946384600F055
:104310006DFD044624B93846FFF78AFF0020EEE71A
:1043200066B1204601F09CFA0446207830B1384648
:10433000FFF77EFF034804600020E0E705B12C6032
:104340003846DCE75400002070B504460D462CB911
:10435000AC4201D0012070BD0020FCE70DB9012066
:10436000F9E705E0207808B90020F4E7641C6D1C2B
:104370002078FBF7F9FE06462878FBF7F5FE864223
:10438000F0D02078FBF7F0FE06462878FBF7ECFE2D
:10439000301AE0E710B56FF00400FEF721FF0A487D
:1043A00000680A49B0FBF1F0094908700846007836
:1043B00000EB4001C1EBC0104FF6FF7101EAC000F5
:1043C0000449088010BD00001400002000127A008B
:1043D000280000202A0000200146114A12884A4382
:1043E0004FF0E0235A6100229A611A46126942F0A6
:1043F00001021A6100BF4FF0E022106900F00102D3
:104400001AB100F48032002AF5D04FF0E022126990
:1044100022F001024FF0E0231A6100229A617047F6
:104420002A0000200146114A12784A434FF0E02347
:104430005A6100229A611A46126942F001021A6119
:1044400000BF4FF0E022106900F001021AB100F441
:104450008032002AF5D04FF0E022126922F00102EA
:104460004FF0E0231A6100229A6170472800002073
:1044700010B5002821D0114B0022001F196803E05D
:10448000814203D80A4649680029F9D152B113681C
:10449000841A9C4204D1006818441060104602E05F
:1044A000506000E0186039B102680B1A934203D1E2
:1044B0000B681A4402604968416010BD600000202A
:1044C00086B001206149086000244FF4A060FDF728
:1044D000BFFFFDF751F941F61F4141F28730FEF76A
:1044E000D3FEFFF757FF4FF4E130FFF791F84FF499
:1044F000E130FFF7E5F8FCF757FDFDF7D3FFFDF7D7
:10450000B1FF53A15748FFF731F9FCF7D3FEFCF791
:10451000CFFB03E04FF4FA70FFF75EFFFEF768F998
:104520000028F7D101215048FEF706FD8DE04F48E5
:104530000088FCF7E6F883464FF08B41FBF71BFF42
:104540008146FCF713F907464FF06632484BFBF7FC
:10455000F7FF0546FCF736F946490860FDF782FF8C
:1045600004A905A8FCF75BFDFDF72EF9824650462D
:10457000FCF7FCF8CDE900019DF810309DF81420FF
:104580003DA13848FFF7F2F89DF8144043A20021FE
:104590000846FEF7D7F8102003232246002100909A
:1045A0005320FEF78DF840A203210020FEF7CAF841
:1045B0001020032300909DF8102019465320FEF789
:1045C0007FF83C480088401C80B23A490880142893
:1045D00027DB4FF480713848FDF7BAF83749087087
:1045E00037A12048FFF7C2F85046FCF7BFF8CDE9E5
:1045F00002013248007808B9012000E00020009054
:104600009DF810309DF8142032A13D48FFF7ECF8DA
:104610003B493C48FEF70EFA002026490880FCF78B
:1046200013FE26480078094908600320FCF71AFEAB
:10463000354908600846006818B108460068FEF76A
:1046400037FA4FF4FA70FFF7C7FE70E7A001214276
:1046500020486172647761726520696E6974204FC9
:104660004B0D0A0000380140040000204C000020DF
:1046700066660A4000000020CEC2B6C83A2564A192
:10468000E60D0ACAAAB6C83A2564252552480D0A7D
:10469000C5A8B6C83A252E32660D0A0054656D705D
:1046A000657261747572650048756D6964697479C5
:1046B0000000000008000020000801401000002059
:1046C0004F6E654E65745F5075626C6973680D0A54
:1046D000000000007B2254656D70223A25642C2274
:1046E00048756D223A25642C224C6564223A256473
:1046F0002C22536D6F6B65223A252E32667D0000A9
:104700006C000020BE5800080C000020F0B50B30F3
:10471000154D20F007010024144A0FE003688B4276
:104720000BD38B4205D95E1A43184768C3E900676B
:1047300000E04368136002C004E0021D1068002816
:10474000ECD12046002802D1286808B10020F0BD35
:10475000064A07481060074A121A22F00702C0E909
:10476000002401202860D7E76400002060000020BA
:10477000F4010020F003002010B50246012000E003
:1047800050430B00A1F10104E1B2F9D110BD0000CA
:104790002DE9F04705460C4620785B2804D02648D2
:1047A00004600020BDE8F0870520E860601C01F08F
:1047B00057F8044620785D2801D1601CF2E7FFF726
:1047C00079FD0646A860A86808B90020EAE72046F7
:1047D00001F046F880464146304600F007FB0746A8
:1047E00001F03EF804460CB90020DBE717E0FFF7C4
:1047F00061FD070000D1D5E737607E603E46601C52
:1048000001F02EF881464946304600F0EFFA804626
:1048100001F026F804460CB90020C3E700BF207859
:104820002C28E4D020785D2801D1601CBAE702482A
:1048300004600020B6E7000054000020014600227A
:104840000878302806DB0878392803DC0878303807
:10485000024415E00878412806DB0878462803DC86
:104860000878373802440BE00878612806DB0878BE
:10487000662803DC08785738024401E000207047BE
:104880001201491C0878302806DB0878392803DC37
:1048900008783038024415E00878412806DB0878AB
:1048A000462803DC0878373802440BE00878612892
:1048B00006DB0878662803DC08785738024401E0F4
:1048C0000020DCE71201491C0878302806DB087854
:1048D000392803DC08783038024415E0087841288C
:1048E00006DB0878462803DC0878373802440BE0FA
:1048F0000878612806DB0878662803DC08785738D2
:10490000024401E00020BAE71201491C087830286F
:1049100006DB0878392803DC08783038024415E0D3
:104920000878412806DB0878462803DC0878373801
:1049300002440BE00878612806DB0878662803DC6F
:1049400008785738024401E0002098E7104696E7BF
:104950002DE9F04F8BB083468A4600200446054679
:104960000026674F0021884689460990012008905B
:104970009AF800002D2802D1624F0AF1010A9AF834
:104980000000302801D10AF1010A9AF8000031280C
:1049900022DB9AF8000039281EDC00BF1AF8011B40
:1049A000A1F13000FBF7B2FE0022574BCDE9060122
:1049B00020462946FBF7C4FDCDE90401DDE90623C5
:1049C000FBF717FD04460D469AF80000302803DB7C
:1049D0009AF800003928E1DD9AF800002E2830D13D
:1049E0009AF8010030282CDB9AF80100392828DCDD
:1049F0000AF1010A00BF1AF8011BA1F13000FBF710
:104A000085FE0022404BCDE9060120462946FBF7F2
:104A100097FDCDE90401DDE90623FBF7EAFC044636
:104A20000D460022364B40464946FBF783FD804643
:104A300089469AF80000302803DB9AF800003928EC
:104A4000D9DD9AF80000652803D09AF800004528BF
:104A500023D10AF1010A9AF800002B2802D10AF1A9
:104A6000010A08E09AF800002D2804D14FF0FF3029
:104A700008900AF1010A08E01AF8010B3038099988
:104A800001EB810100EB410009909AF80000302809
:104A900003DB9AF800003928EEDDDDE9082101FB8F
:104AA00002F0FBF733FE42464B46CDE90001FBF72F
:104AB000A0FC02460B46CDE902010020124900F09D
:104AC000F3F922462B46CDE9060130463946FBF77D
:104AD00037FDCDE90401DDE90623FBF731FD04468E
:104AE0000D46CBE9064520462946FBF720FECBF8CC
:104AF00014000320CBF80C0050460BB0BDE8F08F3B
:104B00000000F03F0000F0BF000024402DE9F04716
:104B100006460C4620787B2804D0404804600020DC
:104B2000BDE8F0870620F060601C00F099FE0446A6
:104B300020787D2801D1601CF2E7FFF7BBFB05461A
:104B4000B060B06808B90020EAE7204600F088FEAF
:104B500080464146284600F063F8074600F080FE94
:104B600004460CB90020DBE7286928620020286190
:104B700020783A2803D0294804600020D0E7601C40
:104B800000F06EFE80464146284600F02FF90746A9
:104B900000F066FE04460CB90020C1E731E0FFF7E3
:104BA00089FB070000D1BBE72F607D603D46601C9C
:104BB00000F056FE81464946284600F031F880460E
:104BC00000F04EFE04460CB90020A9E728692862CF
:104BD0000020286120783A2803D010480460002083
:104BE0009EE7601C00F03CFE81464946284600F0E6
:104BF000FDF8804600F034FE04460CB900208FE733
:104C000000BF20782C28CAD020787D2801D1601CD4
:104C100086E702480460002082E70000540000207C
:104C20002DE9F05F8346884608F10104002798F8D3
:104C30000000222805D06A48C0F800800020BDE8A6
:104C4000F09F04E014F8011B5C2900D1641C20785B
:104C5000222804D0207810B1781C0700F2D1781CEB
:104C60006049096888478146B9F1000F01D10020E9
:104C7000E5E708F101044D469EE020785C2804D069
:104C800014F8010B05F8010B96E0641C20787228DB
:104C900018D006DC622809D066280BD06E287DD19A
:104CA0000CE0742812D07528F9D113E0082005F81B
:104CB000010B7FE00C2005F8010B7BE00A2005F8D2
:104CC000010B77E00D2005F8010B73E0092005F8D2
:104CD000010B6FE0601CFFF7B1FD0646241DB6F521
:104CE0005C4F02D3B6F5604F00D306B962E0B6F56B
:104CF000584F1CD3B6F55C4F19D260785C2802D1AE
:104D0000A078752800D055E0E01CFFF797FD82469B
:104D1000A41DBAF55C4F02D3BAF5604F00D349E049
:104D2000C6F30901504661F39F2000F58036042741
:104D3000802E01D2012708E0B6F5006F01D20227CC
:104D400003E0B6F5803F00D203273D44012F20D079
:104D5000022F15D0032F0AD0042F24D106F0BF0054
:104D600040F08001681E05460170B60900BF06F0DC
:104D7000BF0040F08001681E05460170B60900BF03
:104D800006F0BF0040F08001681E05460170B609BC
:104D900000BF1548C05D3043C1B200E006E0681EA8
:104DA0000546017000BF00BF3D4403E0207805F8D0
:104DB000010B00BF00BF641C2078222803D020789C
:104DC00000287FF45AAF002028702078222800D1D4
:104DD000641CCBF810900420CBF80C0020462EE782
:104DE0005400002058000020E360000870B505461C
:104DF0000C460CB9002070BD042224A12046FBF70C
:104E000014FA18B90220E860201DF4E7052221A158
:104E10002046FBF70AFA18B90020E860601DEAE7AF
:104E200004221EA12046FBF700FA20B90120E86009
:104E30006861201DDFE72078222804D1214628461A
:104E4000FFF7EEFED7E720782D2805D02078302810
:104E500007DB2078392804DC21462846FFF778FD57
:104E6000C9E720785B2804D121462846FFF790FC4B
:104E7000C1E720787B2804D121462846FFF746FE6B
:104E8000B9E7084804600020B5E700006E756C6C57
:104E90000000000066616C73650000007472756547
:104EA00000000000540000202DE9F04D16460F468A
:104EB00094B01C4621F0004123F00042002814BFAA
:104EC0004FF0010C4FF0000C0CEB470CFE4B0CEBC1
:104ED00003054FEA630C65452BD3350018BF012548
:104EE00005EB44051D44F94B9D4222D3F84B52EA91
:104EF000060C02D09F4205D148B914B000201946D3
:104F0000BDE8F08D002808BF4FF0000C01D04FF035
:104F1000010C0CEB470313F5001F0AD8002E14BF39
:104F20004FF0010C4FF0000C0CEB440313F5001F85
:104F300007D914B0324623463946BDE8F04DFEF796
:104F4000EFBCDFF890834FF0000A002FB8BF424556
:104F500023DAE14B9A42A8BF4FF0020A1DDADC4B7C
:104F600093421ADCDD4B03EB2253142B08DDC3F113
:104F7000340C26FA0CF303FA0CFCB4450DD108E00E
:104F80005EB9C3F1140C22FA0CF303FA0CFC94453D
:104F900003D103F00103C3F1020A51EA00031BD15C
:104FA000002C19DA002F18BFBAF1020F02D0BAF1A3
:104FB000010F07D00220FEF7DBFC14B0BDE8F04D76
:104FC000FEF7A6BC0220FEF7D3FCFEF7A1FC14B04E
:104FD00081F00041BDE8F08D330070D1424525D10C
:104FE00007F1804212F5801201BF00280020B84965
:104FF00014B008BFBDE8F08DB548884207DC002C2E
:10500000A1BF1846214614B0BDE8F08D07E0002C82
:10501000BFBF184684F0004114B0BDE8F08DB04920
:105020007944D1E9000114B0BDE8F08DDFF8A0C2E9
:1050300062452AD1002C24DA39B1414517D1002824
:1050400004BF002002461CD106E040B10220FEF75A
:105050008FFCFEF76DFC0A46394600F0D7BA9D4A30
:10506000394614B0002062F31E01BDE8F08D08DA65
:1050700014B03B46BDE8F04D024600206146FBF708
:10508000D1BA14B03946BDE8F08D414517DAB4F114
:10509000804F0CD0A4F10053B3F1FF530FD13B1E4E
:1050A0000DDB14B01946BDE8F04D00F0E2BB3B4605
:1050B00014B00246BDE8F04D1946FBF741BA0500B1
:1050C00027F000433AD1E1B1414537D1002F06DD49
:1050D000002CA1BF0020414614B0BDE8F08D002F88
:1050E00001DD002C1FDB002F16DA002C14DBBAF1D7
:1050F000010F4FF0000014BF76497A4914B0BDE8A3
:10510000F08DBAF1020F18BF002F0CD0BAF1010FC9
:1051100009D1002F07DA0BE0002FB8BF002C0DDA01
:10512000BAF1010F04D0002014B00146BDE8F08DA3
:1051300014B000204FF00041BDE8F08D4FF00108A1
:1051400008EBE77CCDF814C05CEA0A0C0DD0DFF860
:1051500098C162457EDDDFF894C1654B624512DD82
:105160008B420ADB002C18DB23E00120FEF700FC59
:1051700014B0BDE8F04DFEF7D5BB554A8A4202DCBB
:10518000002C0ADC15E0994202DA002C11DA04E066
:105190004F4B994219DD002C0BDD0220FEF7E8FB96
:1051A000FEF7C6FB4B4A14B061F31E021146BDE880
:1051B000F08D0220FEF7DCFBFEF7C2FB444A14B080
:1051C00061F31E021146BDE8F08D00223946FBF75F
:1051D000B1F907460D466FF00102FBF75DFC4FF099
:1051E0005532444BFBF7A9F93A462B46FBF7A8F991
:1051F0000022414BFBF7A1F980468B463A462B46ED
:1052000010461946FBF79CF942465B46FBF798F9B6
:1052100088460E904FF0C042384B38462946FBF77F
:105220008FF983460091364A344B41460E98FBF77E
:1052300087F980460191334A334B38462946FBF7BC
:105240007FF94246019BFBF775F90D4602460B4676
:105250000C9000E011E058460099FBF7CAF80027CF
:1052600088465A463846009BFBF764F92B460C9A51
:10527000FBF763F9024600F079B90020B1F5801F11
:1052800007DA352228461946FBF706FC05466FF07B
:10529000340000EB2150A0F2FF300190C1F3130065
:1052A00040F07F6141F04051029118498842D8BFD7
:1052B0004FF0000B35DD16498142C8BF4FF0010B9E
:1052C0002FDC4FF0000B25E0FFFF1F00FFFF0F005A
:1052D0000000F03F0000F07F0000404301FCFFFFB2
:1052E000541100000000F0FF0000E0410000F04316
:1052F000FFFFEF3F5555D53F0000E03F4715F73F13
:10530000FE822B6544DF5DF80BAE543E8E980300A1
:105310007AB60B000198401C01900298A0F580100D
:105320000290FF480299784400EBCB000991D0E944
:10533000002328460B931292FBF7FCF800910A9089
:1053400028460B9B129A0999FBF753F802460B4625
:105350000020F449FBF766F9CDE90C010B46024643
:1053600000990A98FBF7ECF80690EF48884600276A
:1053700078440299006810904FF0005040EA6100B4
:1053800000EB8B4000F5002102910B9B129A1098C4
:10539000FBF7D0F82A46099BFBF7CFF83A4643467D
:1053A000FBF7CEF80891129038464146029B109ABE
:1053B000FBF7C6F8009B0A9AFBF7BFF8089B129A06
:1053C000FBF7B8F8DDE90C23FBF7BAF80B91069A66
:1053D0001290434610461946FBF7B2F805460246BE
:1053E000D2480B460A9106217844FEF73BFA0A9B05
:1053F0002A460891029010461946FBF7A1F8089B2F
:10540000029AFBF79DF8054609914346384619462E
:10541000069AFAF7EEFF0B9B129AFBF791F82A46D1
:10542000099BFAF7E6FFCDE908013A4643461046E4
:105430001946FBF785F80A910022BD4B0090FAF758
:10544000D8FFDDE90823FAF7D4FF0D463A46B84BFA
:105450003846FBF76FF80A9B009AFBF76BF8DDE91B
:105460000823FBF76AF8CDE908013A462B461046B7
:105470004146FBF765F800910A90DDE908014346D3
:10548000069AFBF75DF8069088462B463A460B993C
:105490001298FBF755F84346069AFAF7AAFF80469A
:1054A0000B4602460D9100990A98FAF7A2FF0020D8
:1054B0000F460546009B0A9AFBF73CF842460D9BB7
:1054C000FBF73BF888460E904FF06042994B284618
:1054D0003946FBF735F802910090974A954B4146C3
:1054E0000E98FBF72DF880460391944A944B28467A
:1054F0003946FBF725F84246039BFAF77AFF914AB3
:105500007A4402EBCB03D3E90023FAF772FF054696
:1055100007910198FBF7FAF80C9003912A46079B34
:1055200002990098FAF765FF874A7A4402EBCB03A9
:10553000D3E9002393460193FAF75BFF039B0C9A90
:10554000FAF757FF002788463846039B0C9AFAF76C
:10555000F1FF5A46019BFAF7EDFF029B009AFAF71A
:10556000E9FF2A46079BFAF7E8FF0246002006906B
:1055700005986C4DAAF10103184301D1734D0690B3
:1055800000200B46049030462146FAF7D9FF8246A8
:105590008B46234630461946049AFAF7CBFF3A4623
:1055A0004346FAF7CDFF52465B46FAF722FF06461E
:1055B0008A463A46434621460498FAF7C1FF044614
:1055C0000F4632465346FAF714FF614A8B46914222
:1055D00021DBABEB020353EA000210D122463B462B
:1055E000FAF7A8FF804603915A4A5B4B3046514672
:1055F000FAF7FFFE4246039BFBF7CCF827D20220C6
:10560000FEF7B6F9FEF794F90A46294614B062F39C
:105610001E01BDE8F08D514B2BF000429A4216D38B
:105620004F4A0BEB020353EA000208D122463B46E5
:10563000FAF780FF32465346FBF7ACF807D8022052
:10564000FEF796F9FEF77CF90A462946DEE72BF0CD
:1056500000404449444A01EB20514FF00008824287
:1056600023DA481C4FF4801121FA00F058443F4AD5
:10567000C0F30A517A443E4BA1F2FF31CB4020EAFD
:105680000303C0F3130040F4801CC1F1140012683E
:105690002CFA00F8BBF1000FB8BFC8F10008204693
:1056A0003946FAF747FF04460F4622463B46304646
:1056B0005146FAF79EFE4FF0000B5A462D4B5846C6
:1056C0000391FAF73DFF00910A902B4A2B4B584665
:1056D0000399FAF735FF0491029022463B4658465B
:1056E0000399FAF727FF32465346FAF726FF244A72
:1056F000244BFAF725FF049B029AFAF77AFE074635
:105700008A46009B0A9AFAF774FE04460E46009BEE
:105710000A9AFAF70FFF3A465346FAF70EFF33E0BC
:10572000C60D00000000F03F040E0000340D000024
:105730000000084009C7EE3FFD033ADCF5015B14A9
:10574000E02F3EBE0C0C0000D20B00000000F0BFAA
:1057500000009040FE822B654715973C00CC90409E
:1057600000346F3F01FCFFFF0000E03F000B000032
:10577000FFFF0F00432EE63F396CA80C615C20BE92
:10578000EF39FAFE422EE63F0746224633460F9196
:1057900010461946FAF7D4FE834602462E488A463A
:1057A0000B4605217844FEF75DF85A465346FAF752
:1057B000C7FE22463346FAF7C0FE82468B463A467B
:1057C000204631460F9BFAF7BBFE3A460F9BFAF78D
:1057D00010FE0F460A9000224FF080435046594673
:1057E000FAF7A8FE0391009052465B4620463146E8
:1057F000FAF7A6FE039B009AFAF714FF3B460A9AB3
:10580000FAF798FE22463346FAF794FE0022134B2D
:10581000FAF793FE0E46044601EB085108150028DE
:1058200010DC424620463146FBF736F9FEF702F817
:10583000042808BFFEF784F8424620463146FBF7AD
:105840002BF9044606980B4614B022462946BDE8BB
:10585000F04DFAF775BE0000A80900000000F03F07
:1058600000E0401C20B1017811B101782029F8DD59
:1058700070472DE9F04106460F46FBF7A2F90400F8
:105880000D4618BF0120284320F00040C0F17F6082
:1058900000F1E040C00F0ED0301C18BF012038438B
:1058A00020F00040C0F17F6000F1E040C00F04BF75
:1058B0000120FEF75DF820462946BDE8F0812F69FA
:1058C0006F742F3934332F707562000000000000B0
:1058D000000000002F000000000700070000147FF8
:1058E000147F1400242A7F2A120062640813230004
:1058F000364955225000000503000000001C2241DB
:1059000000000041221C000014083E081400080892
:105910003E0808000000A060000008080808080011
:105920000060600000002010080402003E5149455C
:105930003E0000427F400000426151494600214143
:10594000454B31001814127F10002745454539009A
:105950003C4A49493000017109050300364949496B
:105960003600064949291E00003636000000005660
:10597000360000000814224100001414141414000E
:105980000041221408000201510906003249595110
:105990003E007C1211127C007F49494936003E418D
:1059A000414122007F4141221C007F494949410079
:1059B0007F09090901003E4149497A007F0808082A
:1059C0007F0000417F4100002040413F01007F08EF
:1059D000142241007F40404040007F020C027F00C3
:1059E0007F0408107F003E4141413E007F090909C4
:1059F00006003E4151215E007F09192946004649B3
:105A00004949310001017F0101003F4040403F0012
:105A10001F2040201F003F4038403F0063140814FF
:105A20006300070870080700615149454300007F83
:105A300041410000552A552A55000041417F000090
:105A40000402010204004040404040000001020402
:105A500000002054545478007F48444438003844AF
:105A600044442000384444487F00385454541800BB
:105A7000087E0901020018A4A4A47C007F08040485
:105A8000780000447D4000004080847D00007F104D
:105A90002844000000417F4000007C041804780086
:105AA0007C0804047800384444443800FC2424244E
:105AB000180018242418FC007C080404080048542A
:105AC00054542000043F444020003C4040207C00CF
:105AD0001C2040201C003C4030403C004428102842
